:02000002D0002C
:1040000000400D00845F0D00000006000C0005015B
:0840100004017E050000000020
:044018007C5B0D00C0
:10401C0009480A49884208B505D0094A824202D0AB
:10402C00121A01F00BFD0748074A0021121A01F081
:10403C0010FD014808BD00BF50E30320F05E0D00E9
:10404C00BCE30320BCE30320F0E7032070B501F0D0
:10405C00B9F8074C074BE41AA40800251E46A542E4
:10406C0004D056F8253098470135F8E770BD00BFED
:10407C00EC5E0D00B05E0D0000F016B808B500F057
:10408C003BF8BDE8084001F06BB800F051BA00F005
:10409C0057BA00F055BA0078B0FA80F04009704772
:1040AC00012303707047000008B5064B01211888E6
:1040BC0001F03AFB044B01211888BDE8084001F0DF
:1040CC0033BB00BFC0E3032050E3032038B50468C2
:1040DC0005467CB16368013B63605BB9236820468D
:1040EC009B689847A368013BA3601BB923682046D3
:1040FC00DB689847284638BD30B5224D224C2888BD
:10410C0089B0012101F021FB0121208801F01DFB68
:10411C00642000F0D3FB312801460BDC0A2204A8F2
:10412C0001F088FA194B049A1B788DF80030184965
:10413C003C230DE0322814D041000A2204A801F0DF
:10414C0079FA124B049A1B7812498DF800303C23F3
:10415C0002A800F065FE03A8FFF7B8FF04A801F061
:10416C0011FA642001F05CF82888002101F0EDFAC6
:10417C000021208801F0E9FA4FF47A7001F050F830
:10418C0009B030BDC0E3032050E30320C4E3032097
:10419C00905B0D009C5B0D00024B01221A7000F02D
:1041AC00FBB800BFC4E3032008B5024B1B681B68B7
:1041BC00019308BD4C02030008B5024B1B681B6938
:1041CC00019308BD4C02030008B5024B1B685B69E8
:1041DC00019308BD4C02030008B5024B1B689B6998
:1041EC00019308BD4C02030008B5024B1B68DB6948
:1041FC00019308BD4C02030008B5024B1B681B6AF7
:10420C00019308BD4C02030008B5024B1B681B6AE6
:10421C00019308BD2802030008B5024B1B685B6ABA
:10422C00019308BD2802030008B5024B1B689B6A6A
:10423C00019308BD2802030008B5024B1B68DB6A1A
:10424C00019308BD2802030008B5024B1B681B6BC9
:10425C00019308BD2802030008B5024B1B685B6B79
:10426C00019308BD2802030008B5024B1B681B6CA8
:10427C00019308BD2802030008B5024B1B681B689C
:10428C00019308BD3C02030008B5024B1B68DB68B8
:10429C00019308BD3C02030008B5024B1B681B6967
:1042AC00019308BD3C02030008B5024B1B685B6917
:1042BC00019308BD3C02030008B5024B1B689B69C7
:1042CC00019308BD3C02030008B5024B1B68DB6977
:1042DC00019308BD3C02030008B5024B1B681B6A26
:1042EC00019308BD3C02030008B5024B1B689B6A96
:1042FC00019308BD3C02030008B5024B1B685B69C7
:10430C00019308BD6402030008B5024B1B689B684F
:10431C00019308BD4802030008B5024B1B681B69DA
:10432C00019308BD4802030008B5024B1B685B698A
:10433C00019308BD4802030008B5024B1B681B6BB8
:10434C00019308BD4802030008B5024B1B685B6C67
:10435C00019308BD4802030008B5024B1B685B685B
:10436C00019308BD1802030008B5024B1B685B697A
:10437C00019308BD1802030008B5024B1B68DB69EA
:10438C00019308BD3002030008B5024B1B681B6A81
:10439C00019308BD3002030008B5024B1B681B6873
:1043AC00019308BD2C02030008B5024B1B689B68E7
:1043BC00019308BD2C02030008B5024B1B68DB6897
:1043CC00019308BD2C02030008B5024B1B681B6946
:1043DC00019308BD2C02030008B5024B1B689B68B7
:1043EC00019308BD6802030008B5024B1B68DB682B
:1043FC00019308BD6802030008B5024B1B685B699A
:10440C00019308BD4402030008B5024B1B681B6AEC
:10441C00019308BD4402030008B5024B1B68DB6B1B
:10442C00019308BD4402030008B5024B1B685B688E
:10443C00019308BD4002030008B5024B1B689B6842
:10444C00019308BD4002030008B5024B1B68DB68F2
:10445C00019308BD4002030008B5024B1B681B69A1
:10446C00019308BD4002030008B5024B1B685B6951
:10447C00019308BD4002030008B5024B1B689B6901
:10448C00019308BD4002030008B5024B1B68DB69B1
:10449C00019308BD4002030008B5024B1B681B6A60
:1044AC00019308BD4002030008B5024B1B681B6B4F
:1044BC00019308BD4002030008B5024B1B685B6BFF
:1044CC00019308BD4002030008B5024B1B685B68F2
:1044DC00019308BD2002030008B5024B1B685B6901
:1044EC00019308BD2002030008B5024B1B68DB6C6E
:1044FC00019308BD2002030008B5024B1B685B6DDD
:10450C00019308BD2002030008B5034B1B68D3F8C8
:10451C008830019308BD00002002030008B5034B4E
:10452C001B68D3F89430019308BD000020020300EF
:10453C0008B5024B1B681B68019308BD1C020300E5
:10454C0008B5024B1B685B68019308BD1C02030095
:10455C0008B5024B1B689B68019308BD1C02030045
:10456C0008B5024B1B68DB6A019308BD1C020300F3
:10457C0008B5024B1B681B6B019308BD1C020300A2
:10458C0010B58368044613B10322014698472046B0
:10459C0010BD00231A464068FFF746BF00220221D7
:1045AC004068FFF751BF002211464068FFF744BF37
:1045BC00002211464068FFF74FBF00231A461946E8
:1045CC004068FFF751BF00231A4619464068FFF7B1
:1045DC0053BF002281F001014068FFF755BF002254
:1045EC004068FFF761BF002211464068FFF764BFC7
:1045FC00002211464068FFF74FBF2DE9F04300241D
:10460C0095B016460D46074600F080FA214620224A
:10461C000CA8009401F01DFA40230C9321466B4624
:10462C000CAA3046FFF7E0FE0446002844D10246AF
:10463C0001216868FFF710FF022180462246686856
:10464C00FFF70AFF009E81462146002E34D0002938
:10465C0032D17368022B02D00A2B09D02AE0B8F1B0
:10466C00000F27D071693846043100F07CFA20E045
:10467C00B9F1000F1ED07469112201A801F0E9F9FB
:10468C0006238DF8143001AD04F1080318341868B2
:10469C0059682A4603C20833A3421546F7D101A92B
:1046AC0006A807AD00F040FA0FCD3C1D0FC42B68D7
:1046BC0023700121F669C8E70098FFF78DFE384694
:1046CC0015B0BDE8F0830000024B034A1A600022CB
:1046DC005A607047C8E30320B05B0D0000221146FE
:1046EC004068FFF7B9BE002211464068FFF7D4BE00
:1046FC00002211464068FFF7DFBE00224068FFF73A
:10470C00D3BE002281F001014068FFF7BDBE00233B
:10471C001A4619464068FFF7AFBE00231A461946E1
:10472C004068FFF7A1BE002211464068FFF784BE27
:10473C00002202214068FFF787BE00231A4640681A
:10474C00FFF772BE024B04225A60024A1A6070478D
:10475C00D0E30320E45B0D00002211464068FFF714
:10476C009BBE002211464068FFF7A6BE002240689F
:10477C00FFF79ABE002281F001014068FFF784BE6A
:10478C0000231A4601214068FFF776BE00231A4623
:10479C0019464068FFF768BE002211464068FFF7D3
:1047AC005BBE002211464068FFF746BE0022022184
:1047BC004068FFF749BE00231A464068FFF734BE35
:1047CC0038B5054688B104684CB1A3681BB1032207
:1047DC002146204698471021204600F0D4FF284659
:1047EC001421BDE8384000F0CEBF38BD10B10368CD
:1047FC005B681847704710B503680446BBB158682E
:10480C00FFF782FD78B923685A7C12B95868FFF714
:10481C0083FD23685868FFF787FD20680023236019
:10482C0028B1FFF7CDFF206808B1FFF7C9FF20467C
:10483C0010BD000038B50C4B03600446D0F8CC0119
:10484C0008B1FFF726FCD4F8C45135B12846FFF760
:10485C00D2FF0421284600F096FFA06808B1FFF7AC
:10486C00C5FF204638BD00BF185C0D0038B50E4C96
:10487C000E4B23600025022304F5E4706360A560F1
:10488C00C4F8C451C4F8C851FFF75EFD084BC4F816
:10489C00CC5184F8D05123602046064A0649BDE825
:1048AC00384000F06BBF00BFD8E30320B05B0D00B5
:1048BC00185C0D00BCE3032041480D0010B5044604
:1048CC0030B101F0F7F890FBF4F303FB140010BDCA
:1048DC0010BD10B5836804460BB900F056FFC368D1
:1048EC009847A3681BB103222146204698472046CF
:1048FC001021BDE8104000F046BF7047F8B50646E1
:10490C0015460C468F18BC4206D0336814F8011BB0
:10491C009B6830469847F6E72846F8BD0022007C95
:10492C00FFF772BC0021007CFFF776BC0021007CF5
:10493C00FFF77ABC0021007CFFF77EBC0021007CD5
:10494C00FFF782BC10B51421044600F01CFF204672
:10495C0010BD000010B504464FF47A730846A360EE
:10496C000021044B207461602360FFF77DFC20461E
:10497C0010BD00BF4C5C0D000021007CFFF76CBC2F
:10498C000B68036013B15A6801325A607047417466
:10499C007047704708B50021007CFFF71DFC30EA1A
:1049AC00200028BF4FF0FF3008BD08B50121007C66
:1049BC00FFF712FC30EA200028BF4FF0FF3008BD93
:1049CC0008B5007CFFF700FC20EAE07008BD08B5D4
:1049DC00007CFFF7F1FB20EAE07008BD007CFFF7DC
:1049EC000BBC10B51421044600F0CDFE204610BDC2
:1049FC0038B50446007C0D46FFF7E6FB002801DCC9
:104A0C00607C28B12946207CFFF7EEFB20EAE070A1
:104A1C0038BD000010B50446002363604FF47A7370
:104A2C00A360054B2360012308462174637411466F
:104A3C00FFF7BAFB204610BD745C0D0010B51422B4
:104A4C000446002101F005F8204610BD30B50E4D8E
:104A5C0087B001A8FFF7F2FF296811F0010410D10B
:104A6C002846FFF718FB60B101AA21460748FFF75B
:104A7C00D1FF2846FFF714FB054A0649034800F00E
:104A8C007DFE024807B030BDACE50320B0E5032045
:104A9C00BCE303209F490D00704710B51821044654
:104AAC0000F071FE204610BDF0B5037D062B8DB0D5
:104ABC000E4600F104074FF0000402D000F1080587
:104ACC0018E00CAD394605F8304D2F232A460A2044
:104ADC00FFF712FC284601F042F833680246DB6807
:104AEC002946304698470FE024B12E21304600F07D
:104AFC00D3FB044415F8011D0A22304600F0FCFBE0
:104B0C00BD420444F0D120460DB0F0BD10B5054BAC
:104B1C000446112240F8043B002100F09AFF204685
:104B2C0010BD00BFA45C0D000346074A10B543F846
:104B3C00042B01F1100251F8044B43F8044B914241
:104B4C00F9D10A781A7010BDA45C0D0010B59DF84F
:104B5C00084044EA032343EA024242EA0161042387
:104B6C004160037510BD37B50D788B784A78C978DC
:104B7C0000912946FFF7EAFF03B030BD70470020D3
:104B8C00704710B51021044600F0FDFD204610BD05
:104B9C0008B508B1FFF7F5FF08BD0022026010B59B
:104BAC004FF69C728280B1F9044084808A8002683E
:104BBC000C6804600A6010BD10B504460068FFF76D
:104BCC00BFFC204610BD38B5C468F4B12378022B65
:104BDC0003D104F10C00FFF7EFFF656835B12846EF
:104BEC00FFF7CEFC1021284600F0CDFDA56835B1AD
:104BFC002846FFF7C5FC1021284600F0C4FD2046CE
:104C0C001421BDE8384000F0BEBD38BD13B50446D4
:104C1C0091E8050000234B600B602060626001A8E6
:104C2C0001930093FFF752FA204602B010BDF7B57E
:104C3C000C4602AD54F8043B45F8083D06460F46B9
:104C4C0001A82146FFF79CFE29463046FFF7DEFF00
:104C5C0001A8FFF73BFA2046FFF738FA384608213F
:104C6C0000F091FD304603B0F0BD13B50B46044681
:104C7C0003C88DE8030093E8030084E803009DE873
:104C8C00030083E8030002B010BD000038B5002318
:104C9C000446036010200D46FFF7F7F928B10123F5
:104CAC0043608360024B0360C5602060204638BDC2
:104CBC00B85C0D00826810B50AB900F066FDC368D7
:104CCC00BDE81040184708B5006800F11001FFF767
:104CDC00F1FF08BD826810B50AB900F056FDC36833
:104CEC00BDE81040184708B5006800F11001FFF747
:104CFC00F1FF08BD38B5002383608B6804460D4670
:104D0C002BB102229847EB68E360AB68A3602046A6
:104D1C0038BD0000F0B589B004686846FFF73DFF68
:104D2C0000238DF808304FF00202D4E84F3F002BDF
:104D3C0003D1C4E8412F0029F7D102D08DF80830F7
:104D4C0063E014F10C0503D069462846FFF725FFF4
:104D5C00BFF35F8F01236370002004F10803BFF3DE
:104D6C005F8F53E8006F43E80002002AF9D1BFF3CC
:104D7C005F8F002E49D0FFF7B7FB20B12946304694
:104D8C00FFF798FF3AE0314602A8FFF7B3FFE0685F
:104D9C00B4F9105008B100F0C7FE06901020ADF821
:104DAC001C50FFF772F90546E8B100278760182000
:104DBC00FFF76BF9044688B10146876002A8FFF73C
:104DCC0054FF049BA268A360059B049206A9E268A9
:104DDC00E36004F110000592FFF7DFFE0D4BEB6072
:104DEC000D4B2C60AB6006A8FFF7E6FE02A8FFF7A0
:104DFC00C7FB002229460948FFF77EFB3046FFF728
:104E0C00BFFB1021304600F0BEFC6846FFF7D4FE15
:104E1C0009B0F0BDD34C0D00494F0D00DF480D001B
:104E2C002DE9F04F8BB006460F46904699469DF8FB
:104E3C0050A0FFF7E1FA07AD834630BB4FF62E7357
:104E4C00059005A92846ADF81830FFF7A6FE1420EA
:104E5C00FFF71BF9044658B102230370012343707A
:104E6C00C0F804B0C0F808B029460C30FFF795FE26
:104E7C003046214640F8044BFFF708FF2846FFF761
:104E8C009BFE05A8FFF798FE52E000240C2314208B
:104E9C006C60AC600793FFF7F8F8014618B104702A
:104EAC0044704460846004A80391FFF7EFFE224B2A
:104EBC0008930820FFF7E9F8044628B1039B40F853
:104ECC00043B04A9FFF75CFD00955FFA8AF34A46A0
:104EDC00414638460994FFF797FA20B9039B5B7853
:104EEC0003F0FF0283B1039B059304A906A8FFF707
:104EFC0047FD05A93046FFF789FE06A8FFF7E6F83F
:104F0C0004A8FFF7E3F813E04FF69C7305A903A878
:104F1C000592ADF81830FFF7FDFE05A8FFF74CFE23
:104F2C0005A80999FFF783FE06A8FFF7CFF8DAE783
:104F3C0030460BB0BDE8F08FB9500D00022AF8B521
:104F4C00044606D0032A17D0012A22D10B6803602D
:104F5C001FE018200E68FFF798F8054650B131464F
:104F6C00FFF7C8FE3069B6F9147008B100F0DCFD2B
:104F7C002861AF8225600CE0046854B104F1100084
:104F8C00FFF71AFE2046FFF7FBFA1821204600F027
:104F9C00FAFB0020F8BD38B5002383608B6804460B
:104FAC000D462BB102229847EB68E360AB68A36017
:104FBC00204638BD022A70B5044606D0032A11D00B
:104FCC00012A18D10B68036015E014200E68FFF756
:104FDC005CF8054620B13146FFF7DDFF337C2B74BE
:104FEC00256008E0046834B12046FFF7C9FA1421A3
:104FFC00204600F0C8FB002070BD0000F0B5002377
:10500C0087B00C46BFF35F8F50E8006F40E800326A
:10501C00002AF9D1BFF35F8F002E3FD01846FFF75F
:10502C0063FA074620B121463046FFF753FE2EE0C7
:10503C00314601A8FFF7AFFF23788DF8143010200C
:10504C00FFF723F80546D0B187601420FFF71DF851
:10505C00044678B18760014601A8FFF706FE039B62
:10506C00A268A360049B0392E268E3609DF814308D
:10507C00049223740A4BEB600A4B2C60AB6001A8C2
:10508C00FFF77EFA002229460748FFF735FA30462B
:10509C00FFF776FA1021304600F075FB07B0F0BD33
:1050AC00F34C0D00C14F0D00DF480D0030B585B03D
:1050BC0004460D4668461146FFF7B9FD7CB124B293
:1050CC0028460DB100F030FD029002A96846ADF8FB
:1050DC000C40FFF71FFE02A8FFF76EFD1DE00098C5
:1050EC008DF808404FF00102D0E84F3FA34203D1A6
:1050FC00C0E8412F0029F7D102D08DF808300CE020
:10510C0010F10C014FF0010318BF0373BFF35F8F55
:10511C00043000F8033CFFF771FF01A8FEF7D6FF3F
:10512C0005B030BD08B50C4B33B1FFF78FFC0368ED
:10513C001B699847002809DC084B63B100F042F961
:10514C0003681B699847002803DC08BDAFF3008097
:10515C00F2E7AFF3008008BD000000000000000083
:10516C0008B5FFF7DFFFFFF7FFF8014B186008BD2C
:10517C002CE7032007B5002300931A466FF0770144
:10518C00FFF7CCF903B05DF804FB000007B54388CA
:10519C000A2B08D0502B09D1094B1B683BB103B02B
:1051AC005DF804EB1847FFF7E5FF06E000230093DA
:1051BC001A466FF07701FFF7B1F903B05DF804FB05
:1051CC00C4E5032010B5FFF7C7F8044600F04AFC0D
:1051DC00074B13B12046AFF3008000210448FFF7C2
:1051EC001BF900210348BDE81040FFF78DB900BF43
:1051FC000000000099510D0010B50446FFF7C0F9EE
:10520C00204610BD0348044A04490023836000F083
:10521C00B5BA00BFC8E50320BCE3032005520D005E
:10522C000021FFF759B90000024B1A68024B1A60B3
:10523C00704700BF54E30320D8E50320014B024A1A
:10524C001A607047DCE50320685D0D00F8B5064672
:10525C000D468F180024BD420CD0336815F8011B85
:10526C009B6830469847002801DB0444F3E7002C88
:10527C0008BF04462046F8BD70B505460C460846E6
:10528C0049B100F06CFC2B68024621462846DB68CD
:10529C00BDE87040184770BD03689B68184730B56F
:1052AC008BB00B4600218DF82410012A98BF0A22DE
:1052BC000DF12304B3FBF2F505FB123303F0FF03EE
:1052CC00092B94BF30333733DBB2214604F8013954
:1052DC002B46002DEED1FFF7CFFF0BB030BD10B435
:1052EC002AB903685DF8044B9B68C9B21847D2B25F
:1052FC005DF8044BFFF7D3BFFFF7F1BF0248002363
:10530C000360FFF721B800BFE0E50320704741744C
:10531C00704708B5007CFEF7E7FF20EAE07008BD97
:10532C0008B5007CFEF7B8FF20EAE07008BD08B5B0
:10533C00007CFEF7C1FF30EA200028BF4FF0FF30A1
:10534C0008BD08B5007CFEF7AFFF30EA200028BF8F
:10535C004FF0FF3008BD007CFEF7B6BF10B514212E
:10536C00044600F010FA204610BD70B5457C04468A
:10537C000E4625B9007CFEF7B7FF002805DD314647
:10538C00207CBDE87040FEF77FBF284670BD000052
:10539C0010B5044608461146002262604FF47A723A
:1053AC00A260054A22600122207462741A46FEF73C
:1053BC0063FF204610BD00BFE05D0D00007CFEF7D2
:1053CC008BBF000038B50C4D296811F0010411D1C8
:1053DC002846FEF760FE68B1084A094B0948214689
:1053EC00FFF7D6FF2846FEF75BFE074A074905483C
:1053FC0000F0C4F9034838BD7CE6032080E60320A6
:10540C00F8E50320E4E50320BCE3032019530D0069
:10541C0010B5044600F0A3FB01382318204698422F
:10542C0006D20278197800F8011B03F80129F6E777
:10543C0010BD70B50C46911E222920D82546294650
:10544C0010B9234430220EE0B0FBF2F602FB16003A
:10545C00C1B205F8011B092894BF3031573105F84A
:10546C00011C3046EBE7994202D201F8012BFAE716
:10547C00002320460B70FFF7CBFF204670BD0020A9
:10548C0070BD38B5031E0C4615460BDAB3F1004F50
:10549C004FF02D0214BF5842184601230A702A46B9
:1054AC00194400E00123FFF7C4FF204638BD00007B
:1054BC00044B00204FF6FF72187058809A80FFF74B
:1054CC0003B800BF04E70320704710B51021044651
:1054DC0000F059F9204610BD70B5084B0360044626
:1054EC0000250E4640F80C5FFEF726FF304626716D
:1054FC00FEF742FFA560204670BD00BF105E0D0098
:10550C000079FEF741BF002211464068FEF7C4BF88
:10551C00002211464068FEF7CFBF00224068FEF71C
:10552C00C3BF002281F001014068FEF7ADBF00232C
:10553C001A4619464068FEF79FBF00231A461946C3
:10554C004068FEF791BF002211464068FEF784BF09
:10555C00002211464068FEF76FBF0022022140680E
:10556C00FEF772BF00231A464068FEF75DBF0000CD
:10557C00024B03225A60024A1A6070470CE7032060
:10558C00205E0D0010B504460068FEF7D9FF2046DA
:10559C0010BD10B50446006808B1FEF7D1FF00231A
:1055AC002360A360636010BD38B504460D460068E7
:1055BC000131FEF7CDFF10B184E82100012038BD88
:1055CC0010B50368044613B143688B4207D22046DA
:1055DC00FFF7EAFF20B1A3680BB922681370012012
:1055EC0010BD70B50E46114604461546FFF7E8FF90
:1055FC0018B92046FFF7CDFF09E02A463146A560D1
:10560C00206800F01BFA2268A3680021D1542046C0
:10561C0070BD38B505460C4641B1084600F09FFAFE
:10562C00214602462846FFF7DCFF01E0FFF7B1FFF9
:10563C00284638BD10B5044600238AB02360636049
:10564C00A3602373084601A9FFF71BFF01A920469D
:10565C00FFF7DFFF20460AB010BD000038B50B4D38
:10566C00296811F001040FD12846FEF714FD58B13A
:10567C0021460748FFF76EF92846FEF711FD054A4B
:10568C000549034800F07AF8014838BD14E70320B7
:10569C0018E70320BCE3032007490D0070B50C4C40
:1056AC000C4E0D4D00212046FFF716FF20460B4CEB
:1056BC003246294600F062F801212046FFF70CFF24
:1056CC00324629462046BDE8704000F057B800BF6E
:1056DC0030E70320BCE30320D5540D0040E7032042
:1056EC0010B504460F48FFF70BFF28B1A4F10B03CC
:1056FC00022B01D8002010BDFFF7B0FFFFF73CF9DB
:10570C0008B1012CF6D9FFF75DFEFFF757FE18B173
:10571C00A4F10903012BEDD9232C8CBF002001200F
:10572C0010BD00BF30E70320232838B504460D46D2
:10573C000AD8FF2908D0FFF7D3FF28B12946204605
:10574C00BDE83840FEF730BE38BD38B504460D46CE
:10575C00FEF732FEFF2810D0062804D84D2323FA7A
:10576C0000F0C30709D42046FFF7BAFF28B1294639
:10577C002046BDE83840FEF727BE38BD0B46014633
:10578C00184600F04DB9FEF782BC08B5FEF7E8FEEE
:10579C00184B1A68D1075CBF01221A60164B1A68A5
:1057AC00D2075CBF01221A60144B1A68D0075CBF89
:1057BC0001221A60124B1A68D1075CBF01221A60D1
:1057CC00104B1A68D2075CBF01221A600E4B1A6884
:1057DC00D0075CBF01221A600C4B1A68D1075CBF62
:1057EC0001221A600A4B1A68D2075CBF01221A60A8
:1057FC00704700BF6CE7032068E7032064E70320D1
:10580C0060E703205CE7032058E7032054E70320FC
:10581C0050E70320244B1A68D0075CBF01221A60A2
:10582C00224B1A68D1075CBF01221A60204B1A6800
:10583C00D2075CBF01221A601E4B1A68D0075CBFEE
:10584C0001221A601C4B1A68D1075CBF01221A6036
:10585C001A4B1A68D2075CBF01221A60184B1A68DF
:10586C00D0075CBF01221A60164B1A68D1075CBFC7
:10587C0001221A60144B1A68D2075CBF01221A600D
:10588C00124B1A68D0075CBF01221A60104B1A68C1
:10589C00D1075CBF01221A600E4B1A68D2075CBF9D
:1058AC0001221A60704700BF9CE7032098E7032091
:1058BC0094E7032090E703208CE7032088E703207C
:1058CC0084E7032080E703207CE7032078E70320AC
:1058DC0074E7032070E70320244B1A68D0075CBFE1
:1058EC0001221A60224B1A68D1075CBF01221A6090
:1058FC00204B1A68D2075CBF01221A601E4B1A6833
:10590C00D0075CBF01221A601C4B1A68D1075CBF20
:10591C0001221A601A4B1A68D2075CBF01221A6066
:10592C00184B1A68D0075CBF01221A60164B1A6814
:10593C00D1075CBF01221A60144B1A68D2075CBFF6
:10594C0001221A60124B1A68D0075CBF01221A6040
:10595C00104B1A68D1075CBF01221A600E4B1A68F3
:10596C00D2075CBF01221A60704700BFCCE703204E
:10597C00C8E70320C4E70320C0E70320BCE70320EB
:10598C00B8E70320B4E70320B0E70320ACE703201B
:10599C00A8E70320A4E70320A0E70320184B1A680C
:1059AC00D1075CBF01221A60164B1A68D2075CBF84
:1059BC0001221A60144B1A68D0075CBF01221A60CE
:1059CC00124B1A68D1075CBF01221A60104B1A687F
:1059DC00D2075CBF01221A600E4B1A68D0075CBF5D
:1059EC0001221A600C4B1A68D1075CBF01221A60A5
:1059FC000A4B1A68D2075CBF01221A60704700BFBD
:105A0C00ECE70320E8E70320E4E70320E0E70320CA
:105A1C00DCE70320D8E70320D4E70320D0E70320FA
:105A2C0010B5054C13462CB10A4601460220AFF3C3
:105A3C00008010BD204610BD0000000010B5431EB4
:105A4C000A44914204D011F8014B03F8014FF8E7D6
:105A5C0010BD02440346934202D003F8011BFAE73F
:105A6C007047000038B5124B1C68A36B0546D3B9C0
:105A7C001820FEF75DFD43F20E33A06303804AF657
:105A8C00CD33438041F2342383804EF26D63C38067
:105A9C004DF6EC630381052343810B2383810122A3
:105AAC000023C0E90423A36B00221D615A6138BD99
:105ABC00B8E30320194B10B51C68A36BD3B918209D
:105ACC00FEF736FD43F20E33A06303804AF6CD3366
:105ADC00438041F2342383804EF26D63C3804DF6D4
:105AEC00EC630381052343810B2383810122002373
:105AFC00C0E90423A16B0A4C0B694869094A5C4351
:105B0C0002FB0040A3FB02230132034443F10003D8
:105B1C00C1E9042323F0004010BD00BFB8E303200B
:105B2C002DF451582D7F954C024B0146186800F00E
:105B3C0003B800BFB8E3032070B5064608460C4610
:105B4C0000F00DF8451C29463046FEF711FD0646BF
:105B5C0018B12A462146FFF771FF304670BD034647
:105B6C0013F8012B002AFBD1181A013870470000DA
:105B7C001D400D0059400D0085400D0089400D0061
:105B8C00000000006368616E6E656C2D6F6E6500C1
:105B9C006368616E6E656C2D74776F000000000099
:105BAC00000000009F450D00A9450D00B3450D00F8
:105BBC00BD450D00C7450D00D3450D00DF450D005B
:105BCC00EB450D00F3450D00FD450D0007460D009E
:105BDC00000000000000000047470D003D470D008D
:105BEC0033470D00E9460D0027470D001B470D00FC
:105BFC000F470D0007470D00FD460D00F3460D0045
:105C0C0007460D000000000000000000C3470D0017
:105C1C00B9470D00AF470D00A5470D0099470D0082
:105C2C008D470D0081470D0079470D006F470D0022
:105C3C0065470D0007460D00000000000000000045
:105C4C0007490D0051490D0029490D0009490D0066
:105C5C0031490D0039490D0041490D0049490D00EC
:105C6C0000000000000000009F490D00EF490D00EE
:105C7C00FD490D0059520D00DB490D00A1490D00E5
:105C8C00B7490D00E9490D00CD490D009B490D00A8
:105C9C000000000000000000B54A0D00A54A0D00F0
:105CAC00A74A0D000000000000000000894B0D0009
:105CBC008F4B0D00D34B0D009D4B0D008B4B0D00EE
:105CCC005A00252B3033643A253032750025592D76
:105CDC00256D2D25645425483A254D3A2553257AB2
:105CEC000061736374696D6500626175640053656E
:105CFC007269616C0053657269616C310074797002
:105D0C006500706172616D00636D640069640068A8
:105D1C006E64007374726D0066696C74006C766CE2
:105D2C000061646448616E646C65720072656D6FCD
:105D3C00766548616E646C657200656E756D486160
:105D4C006E646C657273004A534F4E537472656186
:105D5C006D4C6F6748616E646C65720061707000A9
:105D6C00253031307520005D20002564002C20008A
:105D7C0028293A2000205B00636F6465203D2000D9
:105D8C0025690064657461696C73203D20000D0AFF
:105D9C000066006C6E00666E00636F64650064657F
:105DAC007461696C006E6F6E65007472616365007E
:105DBC00696E666F007761726E006572726F720049
:105DCC0070616E696300616C6C0000000000000083
:105DDC000000000019530D0069530D0077530D009E
:105DEC0059520D002D530D004F530D003B530D0018
:105DFC0063530D001B530D001F530D0000000000DA
:105E0C0000000000D5540D00D7540D000000000018
:105E1C000000000071550D0067550D005D550D001B
:105E2C0053550D0047550D003B550D002F550D00DA
:105E3C0027550D001D550D0013550D0007460D007F
:105E4C000000000000000000000000000000000046
:105E5C000000000000000000000000000000000036
:105E6C000000000000000000000000000000000026
:105E7C000000000000000000000000000000000016
:105E8C000000000000000000000000000000000006
:105E9C0000000000000000000000000000000000F6
:105EAC0043000000A5410D00D5460D0051470D00E3
:105EBC0079480D0011520D0035520D0049520D005C
:105ECC0009530D00BD540D007D550D00A9560D0054
:105EDC009D570D0021580D00E5580D00A9590D00D6
:045EEC0000000000B2
:105EF00007000000ED5C0D00000000004C5E0D008E
:105F00006C5E0D008C5E0D000000000000000000C3
:105F10000000000000000000AC5E0D00000000006A
:105F20000000000000000000000000000000000071
:105F30000000000000000000000000000000000061
:105F40000000000000000000000000000000000051
:0C5F5000000000000000000058E30320E7
:105F5C00FFFFFFFF00000102030405060708090A02
:105F6C000B0C0D0E0F101112131415161718191AFD
:085F7C001B1C1D1E1F20280044
:045F84007856341205
:04000003D000401CCD
:00000001FF
